:1000000000800020BD010000294C0000E14B0000F1
:10001000E14B0000E14B0000E14B0000E14B000030
:10002000E14B0000E14B0000E14B0000294C0000D7
:10003000294C0000E14B0000ED6400003D6700002A
:10004000294C0000294C0000294C0000294C0000DC
:10005000294C0000294C0000294C0000294C0000CC
:10006000294C0000294C0000294C0000294C0000BC
:10007000294C0000294C0000294C0000294C0000AC
:10008000294C0000294C0000294C0000294C00009C
:10009000294C0000294C0000294C0000294C00008C
:1000A000294C0000294C0000294C0000294C00007C
:1000B000294C0000294C0000294C0000294C00006C
:1000C000294C0000294C0000294C0000294C00005C
:1000D000294C0000294C0000294C0000294C00004C
:1000E000294C0000294C0000294C0000294C00003C
:1000F000294C0000696D0000294C0000956E00003D
:10010000294C0000C16F0000294C0000294C000060
:10011000294C0000294C0000294C0000294C00000B
:10012000294C0000294C0000294C0000294C0000FB
:10013000294C0000294C0000294C0000294C0000EB
:10014000294C0000294C0000294C0000294C0000DB
:10015000294C0000294C0000294C0000294C0000CB
:10016000294C00004D550000294C0000294C00008E
:10017000294C0000294C0000294C0000294C0000AB
:10018000294C0000294C0000294C0000294C00009B
:10019000294C0000294C0000294C0000294C00008B
:1001A000294C0000294C0000294C0000294C00007B
:1001B000294C0000294C0000294C0000564B4CF201
:1001C000205210B51A804DF628121A8000BF00BFC9
:1001D00004F02EFD514B4FF010621A60504A9A60A5
:1001E000504ADA60504A136813F4807304D14F49BF
:1001F0000B604FF4A85313604D4B1A78110703D5C9
:100200001A7842F008021A704A4B4B492A221A7097
:100210004A4A4B4B8B4204D252F8040F43F8040B6A
:10022000F8E7484B484900228B4202D243F8042B9E
:10023000FAE74649464A002352F8230041F82300D2
:1002400001336F2BF8D1434B434A802103F8011B44
:100250009342FBD1414B3D4A1A60414B8A221A70AE
:10026000A3F5805324225A70A0221A709A7992071B
:10027000FCD59A79D406FCD43A4A937903F00C035E
:10028000082B384BF9D103221A7140225A719A79FE
:100290009006FCD5334A9179324B4906FBD5324A58
:1002A000324911600221516020221A709A7902F0BD
:1002B0000C020C2AFAD12E4B2E4A1A602E4B2F4AD2
:1002C0001A6000225A60072243F8042C2C4AC3F813
:1002D0000C2D62B604F0AEFE144B1B68DA0705D590
:1002E000284804F095FE284B284A1A60284B1B78B2
:1002F0005B0609D5244C254B22689A4204D121483B
:1003000004F086FE0023236007F054FF04F096FCFF
:1003100006F014FCFEE700BF0E20054030800440CC
:10032000823F04000100002B10D0034014D0034092
:1003300002D0074000E00740AC95FF1FF0B6000078
:10034000308CFF1FAC95FF1F849AFF1F0082FF1F98
:100350000000000000E400E05FE400E008ED00E0E1
:100360000050064000400640448004400000030165
:1003700004800440C010050014E000E0FF76010096
:1003800000002020A53FEF5B1CE00340A5C3945A6A
:1003900000F00740FFFFFFFFFFFFFFFFFFFFFFFF32
:1003A000FFFFFFFFFFFFFFFFFFFFFFFFFFFFFFFF5D
:1003B000FFFFFFFFFFFFFFFFFFFFFFFFFFFFFFFF4D
:1003C000FFFFFFFFFFFFFFFFFFFFFFFFFFFFFFFF3D
:1003D000FFFFFFFFFFFFFFFFFFFFFFFFFFFFFFFF2D
:1003E000FFFFFFFFFFFFFFFFFFFFFFFFFFFFFFFF1D
:1003F000FFFFFFFFFFFFFFFFFFFFFFFFFFFFFFFF0D
:10040000FFFFFFFFFFFFFFFFFFFFFFFFDEF9FFFF23
:1004100010B5054C237833B9044B13B10448AFF33E
:1004200000800123237010BDAC95FF1F0000000069
:10043000F4B60000084B10B51BB108490848AFF3EB
:1004400000800848036803B910BD074B002BFBD0A0
:10045000BDE81040184700BF00000000B095FF1F26
:10046000F4B60000AC95FF1F000000002DE9F04F2E
:10047000A94B4FF0000B89B05F469A46504604F0F6
:100480002BF99AF83430002B00F08B80A34DDFF865
:1004900088B2A34EDFF8B882DFF8A092002421468C
:1004A000A04806F0A5F93A2005F060FF29689D48AC
:1004B00006F09EF93A2005F059FF9B4B99481968C0
:1004C00006F096F93A2005F051FF984B95481968C7
:1004D00006F08EF90A2005F049FFDBF82C102960A0
:1004E000012C00F0C381CB0148BF03F2FF339B1204
:1004F00046F8243048F824100134032C49F8043B12
:1005000005F104050BF1380BC9D1DFF82C92884EA8
:10051000884CDFF84082DFF840B20597002501E003
:100520000436043429467F4806F062F93A2005F083
:100530001DFF19F8011B7B4806F05AF93A2005F017
:1005400015FF3168774806F053F93A2005F00EFFA1
:100550002168744806F04CF93A2005F007FF0023A3
:100560000A2258F8041B6F4806F0BCF93A2005F03F
:10057000FDFE00230A225BF8041B6A4806F0B2F96C
:100580000A2005F0F3FE2368002BDCBF33682360EC
:10059000059B013573B1022B00F09E80092DBFD160
:1005A000059F0137032F0AF1380A7FF467AF09B0BE
:1005B000BDE8F08F594B1A68B2F57A7F44DD5E4B87
:1005C0001B78002B00F0E7815C4B1B68272B40F366
:1005D000AE8140F2E6318A4204DC574A5278002A62
:1005E00000F0AE83642B40F352836C2B05DC524A3F
:1005F00051499278002A00F04E83622BCEDC4E4B9C
:100600004D49DB78002BC9D14D4B494A1B78D26844
:100610004C480691013B120402F4FE021B0203F453
:1006200070631043184305F0FFFC474B06991B8885
:1006300000934FF0010E81F803E0444804233C226C
:10064000502101F091FAA9E73C4B1B68272B00F3DE
:100650000881394B1978002940F06981B2F5617F32
:1006600040F3B28040F2E6318A4200F3AD805B781D
:10067000002B00F065832E4A314B526818782E4FBC
:100680001304013803F4FE03000243F4004343F073
:10069000080300F47060184305F0C6FC2621082208
:1006A0004FF6FF734FF0000E8DE80E00274887F8D5
:1006B00001E043213223502201F016FC4FF478412F
:1006C0000222162302910192009358221F234D21EA
:1006D0001E4801F009FC61E7184B9B68A3F1510229
:1006E000082A3BD8144A1179002900F04C83632B67
:1006F00007DC114AD279002A40F0D281732B00F333
:10070000EC806D2B04DC0C4B1B7A002B40F0EE8050
:10071000092D7FF405AF4AE74096FF1F1097FF1F92
:100720005097FF1F808CFF1F408CFF1F488CFF1FBE
:100730004C8CFF1F2097FF1F4497FF1F3496FF1F0D
:10074000468CFF1F0990007F708CFF1FF495FF1FE0
:100750005C97FF1FC895FF1FEC96FF1F272B00F328
:100760008181B64A1279002A40F01182B34A527947
:10077000002A00F03281B24B5869B24B5A6990425C
:1007800040F04582B04B1B78AC4F013B1B0203F499
:100790007063120443F4004343F0080302F4FE00C4
:1007A000184305F041FC4FF6FF734FF0000E009325
:1007B0003C220A230F21A54887F805E001F0D4F96F
:1007C000A34B00225A61A3E79C4B5B781F46002B8A
:1007D0007FF451AF994B9B780693EBB1994A9A4BB2
:1007E000926818781304013803F4FE03000243F4FE
:1007F000004343F0080300F47060184305F014FC54
:100800008E484FF6FF7300931E22877004235021F9
:100810008E4801F0A9F9C1E6884BDB78002B3FF444
:10082000BDAE884A884BD26818781304013803F4A7
:10083000FE03000243F4004343F0080300F4706039
:10084000184305F0F1FB7D489DF818704FF6FF73D3
:1008500000933C22C770042350217C4801F084F9A6
:100860009CE6B2F5617F7FF7BDAEB2E6794B7A4A7E
:1008700018687A4B1B68C01A10F17E0FA1EB0303B6
:10088000A5BFA3EB83135B00A3EBC313013093FB62
:10089000F0F073687F3080F307008342506010D01F
:1008A000694B1B78013B1B0203F47063000643F4A1
:1008B000D83343F00B0300F0FE40184305F0B4FBBF
:1008C0002968D9F800307360C8F8041004350BF1BA
:1008D000380B09F104090224E1E5584A5749127A14
:1008E000002A00F0F8816D2B3FF712AF554A564BA6
:1008F000D2691878514F1304013803F4FE03000243
:1009000043F4004343F0080300F47060184305F01B
:100910008BFB4FF6FF734FF0000E00931E220A234D
:100920000F214A4887F808E001F01EF9F0E6454A31
:10093000454B12681878414F1304013803F4FE0345
:10094000000243F4004343F0080300F470601843CE
:1009500005F06AFB4FF0000E262108224FF6FF73C8
:100960008DE80E00394887F800E0322350220F212D
:1009700001F0BAFA4FF4FC6E6120372170221E2379
:10098000029001910092CDF80CE0194652222F48B6
:1009900001F0CEFC02E62C4B2A4A1B781268304844
:1009A000264F013B120402F4FE021B0203F47063A3
:1009B0001043184305F038FB0599029108222623BD
:1009C0000120019200935022387032230F211F48DA
:1009D00001F08AFA4FF4784ECEE7602B4ADC174AD2
:1009E0009279002A00F08880154B9869154B9A6916
:1009F000904240F0F480144B1B78104F013B1B02D7
:100A000003F47063120443F4004343F0080302F458
:100A1000FE00184305F008FB4FF6FF734FF0000E81
:100A200000933C220A237221084887F806E001F06F
:100A30009BF8074B00229A616AE600BF4497FF1FAC
:100A40002097FF1F4C8CFF1F468CFF1FF495FF1F44
:100A5000EC96FF1F488CFF1F3496FF1F408CFF1F32
:100A600009900063592B7FF742AE5E2B39DD602B76
:100A70007FF73DAE632B3FDCA74AA7499279002A56
:100A80005DD0272BB0DD682B7FF733AE732B3FF79C
:100A900024AFA14AA049D2798AB3632B3FF731AE84
:100AA0009E4A9F4B126A18789B4F1304013803F437
:100AB000FE03000243F4004343F0080300F47060B7
:100AC000184305F0B1FA4FF6FF734FF0000E009394
:100AD0001E220A237221934887F807E001F044F8A8
:100AE00016E68D4A8C495279002A00F0A880272BFF
:100AF0007FF741AE602BBDDC682BC7DCF7E5884B88
:100B0000864A1B78126A88480691013B120402F457
:100B1000FE021B0203F470631043184305F084FACD
:100B2000824B06991B8800934FF0010E81F807E075
:100B30007C480A231E22722101F016F8E8E5784B62
:100B4000764A1B78926978480691013B120402F4B8
:100B5000FE021B0203F470631043184305F064FAAD
:100B6000724B06991B8800934FF0010E0A233C221A
:100B700081F806E06B48722100F0F6FF6C4B6D497E
:100B80009A69664B8A616C4A9B699361C0E5634AC6
:100B9000634B12691878604F1304013803F4FE03A5
:100BA000000243F4004343F0080300F4706018436C
:100BB00005F03AFA5D4A614B128802928021402288
:100BC0004FF0000E8DE806005648059987F804E0BE
:100BD0000A2201F04BFD574B00221A6198E507935A
:100BE0004F4B069393F800E0020402F4FE020EF16C
:100BF000FF3042F40042000242F0080200F470604C
:100C0000104305F011FA0799069B8A69F4E60793E9
:100C1000434B069393F800E0020402F4FE020EF147
:100C2000FF3042F40042000242F0080200F470601B
:100C3000104305F0F9F90799069B4A69A3E5384B7B
:100C4000364A1B78526938480691013B120402F477
:100C5000FE021B0203F470631043184305F0E4F92D
:100C6000324B06991B8800934FF0010E0A233C2259
:100C700081F805E02B480F2100F076FF2C4B2D4921
:100C80005A69264B4A612C4A5B69536140E55F2BE8
:100C90007FF784ACB1E4224B204A1B78926822484B
:100CA0000691013B120402F4FE021B0203F470637E
:100CB0001043184305F0B8F91C4B06991B880093A4
:100CC0004FF0010E81F802E0164804231E22502145
:100CD00000F04AFF62E4124B104A1B78D2691248B6
:100CE0000691013B120402F4FE021B0203F470633E
:100CF0001043184305F098F90C4B06991B88009394
:100D00004FF0010E81F808E006480A231E220F2149
:100D100000F02AFFFCE400BF4497FF1F4C8CFF1F2C
:100D2000468CFF1FF495FF1F0990007F708CFF1FFA
:100D3000C895FF1FEC96FF1F2097FF1F78A90000A2
:100D4000234B244A1B7852682348244F013B12044A
:100D500002F4FE021B0203F470631043184305F013
:100D600063F92621082200234FF0010E8DE80E00C2
:100D70001B4887F801E043213223502201F0B4F8E8
:100D800040F2FF719CE40692114B124A1B781169E4
:100D90001148013B090401F4FE011B0203F47063D6
:100DA0000843184305F040F9069A802040214FF48B
:100DB00078438DE80B00012111710A4B0848059911
:100DC0000A2201F053FC084B084A1B6913619FE497
:100DD000468CFF1F4C8CFF1F0990007F4497FF1F1C
:100DE000F495FF1F78A90000C895FF1FEC96FF1F20
:100DF00070B50B21254805F0E5F90A2005F0B6FA93
:100E0000234B1A7A32BBDB79002B30D1214D224E95
:100E10002A68224B224C5B68236093420FDC3268C5
:100E20001D4C9A4200DC70BD0A3308211D48236026
:100E300005F0C8F90A20BDE8704005F097BA643B98
:100E4000072119482B6005F0BDF90A2005F08EFA3C
:100E50002368E4E70A2115480E4D0F4E05F0B2F95C
:100E60000A2005F083FA4FF416722A60D1E70B21AD
:100E70000F48094E074D05F0A5F90A2005F076FA4E
:100E80004FF42F732A683360C3E700BF78AD0000CA
:100E90004497FF1F488CFF1F408CFF1F1097FF1FB8
:100EA000F095FF1FA4AD00009CAD000084AD0000D4
:100EB00090AD00002DE9F04F514CDFF858A1DFF85C
:100EC0005891504EDFF8548187B004F1240B251D52
:100ED000DAF800300593059B44F8043F31692B692B
:100EE000B9F800205B1A934203D998F80430002B1C
:100EF00044D16B6971695B1A9A4250D298F80530F7
:100F0000414F002B4BD0BB683E2B45DDFE687C6912
:100F10003D69B969DFF808813C48A6F10A02A4F1ED
:100F20000A06FC69FA60A3F10A0EA5F10A03A4F10E
:100F30000A053C6AC7F808E00A394FF01F0ECDF8E1
:100F400000E00A3C3B61B9610A237E613C220F212B
:100F5000FD613C62C8F800E000F006FEB8F8003021
:100F60000293802240238DE80C002848284B0A2257
:100F7000022101F07BFB07B0BDE8F08F8021402209
:100F80004FF4FC638DE80E002048214B0A22022119
:100F900001F06CFBFFF72CFFA34599D1EBE7AB69A0
:100FA000B1695B1A9A42F7D298F80630164F002BB7
:100FB000F2D0BB68432BEFDC3D69B869FE687C6901
:100FC000DFF85C8003F10A0105F10A0300F10A056C
:100FD000F869B96006F10A0204F10A063C6AFA608F
:100FE0000A304FF4784ECDF800E00A343B61F861E6
:100FF0000A237E613C22BD6172210448A9E700BF3B
:10100000C495FF1FEC96FF1F4C8CFF1FF495FF1F2C
:1010100078A900007097FF1F448CFF1F4497FF1FA3
:10102000708CFF1F324A13681F2BF0B421DD3F2B59
:1010300011DD5F2B35DD7F2B27DD9F2B3FDDBF2BA8
:1010400049DD2C4C2C482D4900231F2503700B70C3
:10105000257001230AE0274E274C2849C3F13F079A
:101060001F25002037700133257008701360F0BC15
:10107000704721481F4C214903701F25002025700F
:10108000013308701360F0BC70471A4E1A4C1B49AC
:10109000C3F17F0500271F203770013325700870CA
:1010A000E4E7154C1549134E1F25A3F14000002716
:1010B00025700870013337701360F0BC70470D4E17
:1010C0000D4C0E49A3F1800700251F203770013316
:1010D00025700870CAE7074E074C0849C3F1BF00E6
:1010E0001F2700253770257008700133BEE700BF49
:1010F000EC95FF1F4D97FF1F1C97FF1FE896FF1FE2
:101100002DE9F04782B0234CDFF890A02248082256
:101110000D2301250192009309220B230A2102F0DD
:101120003FF84FF0814800274FF4806900262046A1
:101130002A4629465346C4F80490C4F81080257501
:10114000276284F8246003F09FFA53462A4604F18C
:1011500038000221C4F83C90C4F8488084F84C5010
:10116000A76584F85C6003F08FFA53462A4604F1C1
:1011700070000321C4F87490C4F8808084F884500F
:10118000C4F8907084F8946002B0BDE8F04703F0B2
:101190007BBA00BF4096FF1FF495FF1F0AD7233C80
:1011A000F0B591B0FFF786FE6F4FFFF75FF9FFF7DD
:1011B00039FF002211466D4801F052FD386806F0F3
:1011C00033F906F031FC0BAB0022042103F076FD6D
:1011D000014603A805F0E2FB059EC6F10406002EB9
:1011E00040F3C080012507AC6149204605F0D6FBDD
:1011F00003A9204605F048FC014603A805F014FCAD
:101200000135204605F008FCB542EDDD03A9204676
:1012100005F0F0FB03A805F0FFFB2146534805F05D
:10122000A9FA204605F0F8FB00222D214F4801F0D5
:1012300017FD786806F0F8F806F0F6FB0BAB002215
:10124000042103F03BFD014603A805F0A7FB059E22
:10125000C6F10406002E12DD01254549204605F0A1
:101260009DFB03A9204605F00FFC014603A805F0ED
:10127000DBFB0135204605F0CFFBAE42EDDA03A9DA
:10128000204605F0B7FB03A805F0C6FB214637480A
:1012900005F070FA204605F0BFFB002250213348CC
:1012A00001F0DEFC334B986806F0BEF806F0BCFB9C
:1012B0000BAB0022042103F001FD014603A805F059
:1012C0006DFB059EC6F10406002E12DD012528499E
:1012D000204605F063FB03A9204605F0D5FB014637
:1012E00003A805F0A1FB0135204605F095FBB542AA
:1012F000EDDD03A9204605F07DFB03A805F08CFB7E
:1013000021461A4805F036FA204605F085FB7E682E
:10131000164835B20824C6F180034AF655522946CC
:1013200001921BB20094782202F018FF124B134A6C
:101330001B7812780D48009443EAC62343EA8213CF
:101340009BB2019378222B46032102F007FF002372
:1013500001932946009403237822044802F0FEFEFC
:1013600011B0F0BD07AC51E73496FF1FF495FF1F95
:10137000B0AD00001097FF1F4D97FF1F1C97FF1F78
:101380002DE9F041484C84B02046012102F00CF8D0
:101390002046002101F074FC1F2220464FF6FF7109
:1013A00001F068FC2046012101F05EFC204600218E
:1013B00001F064FC1F2600220827204601921146F6
:1013C00002960097802300F08FFD402280234FF685
:1013D000FF752046019200930296344B0A220221A7
:1013E00001F044F9204600950A231E220F2100F047
:1013F000BBFB009520460A233C220F2100F0B4FBE2
:101400000095204604231E22502100F0ADFB0095DC
:10141000204604233C22502100F0A6FB00952046E4
:101420000A231E22722100F09FFB4FF02608009530
:1014300020460A233C22722100F096FB02952046AA
:101440000197CDF80080322350220F2100F04CFD8F
:101450004FF4FC634FF0610E039337211E2370227B
:10146000CDF808E02046019100921946522200F082
:101470005FFF029520460197CDF80080322350226D
:10148000432100F031FD4FF47845022116220191ED
:10149000009233462046029558224D2100F024FD4B
:1014A00004B0BDE8F08100BFF495FF1F78A90000EB
:1014B000FFF766BF00207047704700BF10B4046894
:1014C0002469A44610BC604770B40468BDF90C6080
:1014D000BDF8105003960495246CA44670BC604778
:1014E000704700BF10B582B0B0F90C2001910168BF
:1014F000009200220C6CB0F90A301146A04702B0ED
:1015000010BD00BF704700BF01F003010129C17584
:1015100006D0032904D0C2880389428183817047A1
:101520000289C38842818381704700BF2DE9F04161
:101530000568134E6F6986B0B7420446BDF8308027
:1015400010D1013B13441BB20093CDF804800B462D
:10155000AD6A2046A8472368DB6AB3420AD106B0C9
:10156000BDE8F081059304920391B84703A925686B
:101570000EC9E6E7204606B0BDE8F041184700BFB7
:10158000E11400002DE9F0410568124E6F6986B044
:10159000B7420446BDF830800FD1013BCDF804803E
:1015A0000B4400921BB2AD6A2046A8472368DB6A51
:1015B000B3420AD106B0BDE8F081059304920391CD
:1015C000B84703A925680EC9E7E7204606B0BDE87D
:1015D000F0411847E11400002DE9F04FD0F800E089
:1015E0002D4FDEF8146085B0BE42BDF9384003943B
:1015F0000546BDF83CA00C469146984643D1A04410
:10160000444531DA039BDFF898B0013B4B441BB2F1
:101610000293734617E09E6B964218D15A69BA42FC
:101620002DD1029A0092CDF804A09E6A4A46234624
:1016300021462846B0472B68DA6ABA421BD10134EA
:1016400024B244450FDA1E6A144A5E45E3D02146AF
:101650000134039BCDF800A04A46284624B2B04787
:1016600044452B68EFDB9E46DEF82C30BB420ED1A2
:1016700005B0BDE8F08F284690472B68DFE7284685
:1016800090472B68CDE7B047D5F800E0B7E728468C
:1016900005B0BDE8F04F1847E11400002D1500001B
:1016A000E91700002DE9F04F85B09846BDF938E004
:1016B000BDF83C90C2EB0E03002B1646C1EB0802AE
:1016C000B8BF5B42002AB8BF5242934207461DDCB6
:1016D0000D4645451846F44631461FDDC8EB05006A
:1016E00080B2CCEB010104B2029004EBD47481EA25
:1016F000E1707645AC46A0EBE1704FEA64047646B3
:10170000454669DD01210391E04615E0C4463546B2
:10171000F04645451046E6460E46DFDCC5EB0801BF
:1017200089B20CB202914FF6FF7104EBD474764586
:10173000B8BF01216410039193422A4B01931FFA11
:1017400080FA2CDC08E0039A1644029AA84502EBC2
:10175000030436B224B217DBD7F800E0019BDEF8B1
:1017600018B09B4529464B4608BFDEF810B0CAEBBF
:10177000040432463846D847A3B21CB20135002CC7
:101780002DB2E0DBA845E7DA05B0BDE8F08F039A9B
:101790001644029AD41836B224B2A845F4DBD7F81E
:1017A00000E0019BDEF818B09B452A464B463146C7
:1017B00038460BD1DEF810B0D847CAEB0404A3B208
:1017C0001CB20135002C2DB2E7DAE0E74B462A4681
:1017D00031463846D847F0E74FF6FF710391E046AF
:1017E000AAE700BFBD1400002DE9F0430668DFF84A
:1017F0006CE0B76B85B07745BDF8308018D18C466A
:101800001C46154F0B467169B94205461CD1013C77
:10181000144424B2CDF8048000941946B46A2846D2
:10182000A0472B68DB6ABB4209D105B0BDE8F08355
:10183000BC46CDF8308005B0BDE8F043604728468F
:1018400005B0BDE8F04318470392CDF808C08847BB
:101850002E68039A029BDAE7E11400002D150000C0
:101860002DE9F0430668DFF864E0F76B85B0774553
:10187000BDF8308015D11C46134F7369BB42054635
:101880001BD1013C6318CDF8048000921BB2B46AEE
:101890002846A0472B68DB6ABB4209D105B0BDE8EA
:1018A000F083BC46CDF8308005B0BDE8F04360471A
:1018B000284605B0BDE8F0431847039202919847C7
:1018C0002E68039A0299DCE7E114000085150000F8
:1018D0002DE9F04186B099420546BDF93040BDF88A
:1018E000347034D0A24213D0D0F800E03C4EDEF881
:1018F0001480B04559D18DE89000DEF82840284684
:10190000A0472B68DB6AB34242D106B0BDE8F08144
:10191000994202DD084619460346D5F800E0DFF893
:10192000C8C0DEF83C60581C1FFA81F8C8EB000004
:10193000664584B231D1DEF81430294EB3423DD130
:1019400008F1FF302318019700921BB2D5E7A2429D
:1019500002DD134622461C46D5F800E0214BDEF896
:10196000386001341FFA82F8C8EB04049E42A4B226
:1019700013D1DEF814301A4EB34228D108F1FF30EB
:1019800023181BB200930197DEF828400B46B6E7F8
:10199000284606B0BDE8F041184723B22846B446B1
:1019A0000C9706B0BDE8F04160470593049203919F
:1019B000C04703A9D5F800E00EC99CE70492039143
:1019C00028469847D5F800E0049A0399B8E70492AE
:1019D000039128469847D5F800E0049A0399CDE78B
:1019E000E11400002D150000851500002DE9F04FD1
:1019F000D0F800E0DFF83881DEF8146085B04645A5
:101A0000BDF9385003950446BDF83CA00D469146FB
:101A10001F465AD1CDF800A0DEF824603B464A4666
:101A200029462046B047039B5E1E4E442368CDF8EE
:101A300000A036B2D3F824B032463B4629462046B1
:101A4000D8472368384AD3F820B0934534D1D3F827
:101A500038B0364A93452FD15A69424552D18DE864
:101A600040044A46D3F828B029462B462046D8479A
:101A70002368DA6A424549D1D3F820B02A4A013FA7
:101A80003D4493452DB229D19F6B284A97422FD1CF
:101A90005A6942453ED18DE840044A469E6A29462D
:101AA0002B462046B0472368DB6A434536D1434581
:101AB0000FD105B0BDE8F08F039BCDF800A04A46DA
:101AC00029462046D8472368D6E7B047D4F800E037
:101AD000A0E7204605B0BDE8F04F1847039BCDF8BE
:101AE00000A04A4629462046D8472368DB6ADEE73D
:101AF000039BCDF800A04A4629462046B8472368F4
:101B0000DB6AD4E7204690472368A8E72046904741
:101B10002368B1E7204690472368BCE720469847F2
:101B20002368DB6AC3E700BFE91700002D1500003A
:101B3000E1140000F0B4002401264FF6FF75094FB0
:101B400007600471C475C48104824476C4618675DB
:101B5000067685824582C180028141818281F0BC06
:101B6000704700BFBCAD00002DE9F04FD0F800E099
:101B700093B0DEF81450BDF8704007949846A84B17
:101B800004909D420C4640F095811FFA88FB93B269
:101B9000DEF82050A34909934FEA4B06CBEB03072D
:101BA0000136B6B2BFB28D4233B23AB240F07A815A
:101BB000DEF838509C498D4240F07481DEF81430D4
:101BC00097498B4240F08781079B0193BB19013BEA
:101BD000049E1BB2009321462346DEF8285030466F
:101BE000A84732688E49D36A8B4240F06F81CBEBB5
:101BF000CB31490009B206914146CBF101030029DE
:101C00000FFA83FA40F3FB80A3B2581C0D930B909C
:101C1000013B09980A9300230293431E1093034645
:101C200001330F93C1469BE0D2F838807E49884546
:101C300040F0C78051697A48814240F00A81079993
:101C40000191691E214409B20091D2F828800498BC
:101C5000059A1946C047049B71491A68D36A8B429A
:101C600040F0F0801099D2F820800D9B891B09B2BA
:101C70000C916C495B4438B288450E901BB240F021
:101C8000C580976B68498F4240F0D08051696448A5
:101C9000814240F00081079901910F99DDF8108091
:101CA000711809B20091976A0C9A19464046B847D4
:101CB000D8F800305A49DA6A8A4240F0E7800A9A36
:101CC0001F6AC6EB0208574A97420FFA88F840F09D
:101CD0008C809F6B544A974240F087805A695049E4
:101CE0008A4240F0CE80013D2C44079A049D019227
:101CF00024B200949C6A059A434641462846A04770
:101D00002B684749DA6A8A4240F0B6800D9A1C6A0D
:101D1000CBEB0205434A94422DB25CD19C6B424A04
:101D2000944258D15A693E498A4240F0A080079AAD
:101D300001920F9A164436B2009629469C6A0C9A74
:101D40002B46049D2846A0472A683549D36A8B4212
:101D500040F08880029B01330293039B99454EDD3E
:101D6000BAF1000F0DDB069B02339BB209F1FF3184
:101D70009A440FFA81F91BB20FFA8AFA06931FFAF6
:101D800089FBBDF80860099BD2F82080CBEB0305E6
:101D9000711C09B2ADB277004FEA4B04039129B22E
:101DA000033701340B9B05911E49BFB2A4B2BA445C
:101DB000F31820B288450FFA8AFA08901BB23FF454
:101DC00033AF079A00921946059A089B0498C047BA
:101DD000049B1A6846E72946049D079B00930C9ACA
:101DE0000E9B2846A0472A68B4E7049C079B0093F3
:101DF000059A089B41462046B847236886E7D36A80
:101E0000074A93425DD113B0BDE8F08F049F079A53
:101E1000009219460C9A0E9B3846C0473B684EE725
:101E2000E1140000E91700002D150000DDF8108016
:101E3000079A009219460C9A0E9B4046B847D8F86C
:101E400000303CE7DDF8108040469847D8F8002085
:101E500008E7DDF810800C9340468847D8F800204A
:101E60000C9BECE6049C20469847226872E7049C91
:101E70002046904723685AE7049C204690472368F1
:101E800044E7049F384690473B682CE7049F384658
:101E900090473B6813E7049F1193384688473A6898
:101EA000119BF8E6049E0799009130462146A84709
:101EB00032689CE60292A847049B029AD3F800E09D
:101EC00063E6049813B0BDE8F04F1847049D284618
:101ED00098472A688BE6049D029228469847D5F8D1
:101EE00000E0029A70E600BF2DE9F04F97B0D0F8FD
:101EF00000E0BDF984400F94BDF88840DEF814700E
:101F000009941C46834B06909F42BDF98050884639
:101F1000164640F0FF81BDF83C30DEF81C907E4A4A
:101F200000951FFA88F85F00914508EB0301099AB4
:101F30000192A4B2BFB2129389B2A4EB0703324656
:101F40000D911BB209B208BFDEF840900698C84751
:101F50001299013C0E44A044B0B2013DC1EBC13323
:101F6000C1EB08080F9E0390EF1BC1F101025B005B
:101F70001FFA88F10E911CB2B9B2002E14910546D9
:101F800007940FFA82FB40F3CA814A1C431C92B2A9
:101F90000492CA180E9B13920133069A0B936B1E80
:101FA000106811930022CB1C0894CDF854B05C4605
:101FB000B2461093934650E0836B584A93429E4634
:101FC00040F052814369534A934240F09381013D6E
:101FD0002944099B019309B200914B464946DDF81B
:101FE0001890856A62464846A847D9F80000494AD1
:101FF000C36A934240F07981BDF844300E9A056A75
:10200000BDF8409046490C9390444E44DA1B8D42F3
:102010000FFA88F812B233B25ED1856B3F498D4218
:102020005AD143693B498B4240F05881099B019347
:10203000139B069E1F443FB20097856A4346304675
:102040004146A8473068334AC36A934240F0418111
:10205000059B9A450BF1010B4ADD002C0ADB089B1E
:1020600002339BB21C440AF1FF3A1BB224B208931C
:102070000FFA8AFA1FFA8BF7039A1FFA8AF87E0082
:10208000C8EB0205B6B2049AF31C02EB48011C44EB
:102090000B9B026A0C9289B207EB030907F1010E50
:1020A0000BB20A930FFA8EF305931D4BADB29A4211
:1020B00024B20FFA85FC0FFA89F93FF47DAF494647
:1020C000DDF81890099B0093154648460A9B624626
:1020D000A847D9F800008FE7069E0999009130467D
:1020E0004146A847059B30689A450BF1010BB4DCCB
:1020F000039BCDF82C905F1C149BDDF854B0DDF8E9
:1021000048903B440E930D9B0F9F013B4FF0000AFC
:10211000089357E0E1140000C91400002D150000D9
:10212000E9170000826B96467E4A964540F0A980EA
:1021300043697D4A934240F0B080013C2144099BB1
:10214000019309B2009143464146DDF81880846A44
:1021500062464046A047D8F80000734AC36A9342DB
:1021600040F0AD800B9B046A70491D440D9BC9EB88
:1021700003080C9B8C42A3EB06020FFA88F82BB2E3
:1021800012B25ED1846B67498C425AD14369664969
:102190008B4240F08D80099B01930E9B069D1E444F
:1021A00036B20096846A434628464146A0472868CE
:1021B0005D4AC36A934240F08780059B9F420AF1C3
:1021C000010A4ADDBBF1000F0BDB079B02339BB218
:1021D000013F9B443FB21BB20FFA8BFB07931FFAE0
:1021E00087F91FFA8AF6039A7500C9EB0204ADB2AB
:1021F000049AEB1C02EB49019B44026A089B0A9279
:1022000006F1010EC6EB03080FFA8EF39646474A15
:102210000593A4B289B296450FFA8BFB0FFA88F8A2
:102220000FFA84FC0BB23FF47DAF4146DDF8188015
:10223000099A0092404662460A9CA047D8F80000DE
:1022400090E7069D0999009128464146A047059BC5
:1022500028689F420AF1010AB4DCC36A324A9342F9
:1022600053D117B0BDE8F08F4946DDF81890099BAF
:10227000009348460A9B62467546A847D9F8000075
:10228000BAE64146DDF81880099A00924046624657
:102290007446A047D8F8000064E70F91CDF828C035
:1022A00006989847069B0F991868DDF828C044E700
:1022B000069C0A922046984720680A9A6BE7069C7B
:1022C0002046984720684DE7069C2046984720689E
:1022D00073E7069D284698472868B9E6069D0A9246
:1022E0002846984728680A9AA0E6069D28469847F7
:1022F000286881E60C91CDF828C006989847069B7F
:102300000C991868DDF828C061E6069817B0BDE89A
:10231000F04F1847B847069BD3F800E0FBE5069B53
:1023200018689AE72D150000E1140000E917000075
:102330002DE9F04F8DB0BDF95840BDF96050BDF8A2
:1023400064600B942746BA4203950296BDF95C403F
:102350000A920E460546114608DD039A9142384618
:1023600040F3EB8032460A901E46ABE003998F4261
:102370003A4600F3A480D5F800E07D49DEF8142049
:102380008A4240F0B1800A9A03998A4200F0B780ED
:10239000DDF82C80BDF828208C469BB219461FFA28
:1023A00088F7B6B2A4B206931FFA8CF3881BC6EB6B
:1023B0000409641AB91A9A1ADB1BE0451BB2099387
:1023C00043461ABF07F1FF331BB243460FFA82FBA5
:1023D00005931A460A9B00B2079009B220B29342B5
:1023E0000FFA89F90490089100F3B88000271C4681
:1023F000B846AA46F44601E0DAF800C097FBFBF1C4
:10240000089B98FBF3F3314433441BB209B2079D98
:102410008B4222465046A8444F4402DC8E46194661
:102420007346029D009501335B1A1BB2DCF8245001
:10243000A8470134059B24B2A342DDDA0A9BDAF8EF
:1024400000E0C3EB0408554609FB08F827460B9B40
:10245000FF1A049B03FB07F7039BA34227DBB2464B
:10246000F44601E0D5F800C0069E98FBFBF1099BFD
:1024700097FBF3F3514433441BB209B2049E8B42E1
:10248000224628463744C84402DC8E461946734625
:10249000029E009601335B1A1BB2DCF82460B04741
:1024A0000134039B24B2A342DCDAD5F800E0DEF865
:1024B0002C302F4A93423BD10DB0BDE8F08F0A98E3
:1024C00011461A46039B83424DDAD5F800E00B9083
:1024D000334603980391264625490A901446DEF8B0
:1024E00014208A423FF44FAF0493284690470A9A3B
:1024F0000399D5F800E0049B8A427FF449AF9E42DD
:1025000023DDA34204DCA642B8BF264636B21C46F1
:10251000029A00920136331B1BB20A9ADEF824603D
:1025200021462846B0472B68114ADB6A9342C3D044
:1025300028460DB0BDE8F04F18470A990B980A904D
:1025400032460B911E46134615E7B342B8BF3346D9
:102550001A463346A34216B2D5DDD9E71F461C46BC
:102560004FF0000873E70B9303912346144602E7EC
:10257000E11400002DE9F04F87B01746BDF9404047
:1025800005932546EA1D44BF2B4603F10E02D0F801
:1025900000E0BDF84860DEF814300294D2100492D6
:1025A000304ABDF94440009693428146019150D192
:1025B000002C46DD029B3C445E1EB6B24FF0000A82
:1025C00023B2039301365546029B002B32DD059B57
:1025D000002403EB0A0805E0EDB22B0611D4013408
:1025E000A64227D0A1B211F0070F23B24FEA45054A
:1025F000F2D1002BB8BF0733DB1018F803502B06BD
:10260000EDD5019BDEF818B01944174B0FFA81FC89
:102610009B4508BFDEF810B0009B3A46614648462D
:102620001EBF61463A4648460134D847A642D9F80B
:1026300000E0D7D1049B01379A44039B3FB2BB42D1
:10264000C2D1DEF82C30074A934206D107B0BDE86C
:10265000F08F9847D9F800E0AAE7484607B0BDE8F0
:10266000F04F1847E1140000BD14000070B4BDF92C
:102670000C60BDF91050BDF8144003960495059404
:1026800070BCFFF777BF00BF2DE9F04F9BB08346CA
:102690000B91C169BDF890000A909DF89800BDF8B3
:1026A0009480069015920393002900F01C810A7A09
:1026B0000AC9079103998A1AD2B203EBC203069999
:1026C0001A8814469A780392DA781492012993F9B9
:1026D000052093F906301892199340F2EF801BB24F
:1026E0001693DBF80030DFF854A312B210925A6947
:1026F000524540F0EE80149A002A00F0B380BDF8F5
:102700001810099100220892049291464A1ED04660
:102710001792A246039A002A00F09B80BDF8202061
:10272000169913920A44BDF8241012FB01F2BDF869
:10273000541012910A44179992B2511809B212B268
:1027400011910C92002508E001350399EAB24FEA95
:1027500049098A425FFA89F977D2049A2A445207D2
:1027600006D107990AF1010211F80A901FFA82FABC
:1027700019F0800FE8D0069A012A79D0109A0B99A7
:10278000DE69AC18BDF8242014FB02F4A54A0C4401
:102790009642BDF91810059124B27FD11E6CA24A51
:1027A00096427BD15A69424540F08380069A1719B8
:1027B000BC4238DACDF834A0CDF838900F95DDF86A
:1027C00030900A9DDDF844A017E09E6B964219D127
:1027D0005A69424534D10195CDF800A09E6A4A4617
:1027E000234621465846B047DBF80030DA6A4245B6
:1027F00021D1013424B2A74210DD1E6A8B498C4AD4
:102800008E42E2D021460134059B00954A46584647
:1028100024B2B047A742DBF80030EEDCDDF834A08C
:10282000DDF838900F9DDA6A42458DD058469047C2
:10283000DBF8003088E758469047DBF80030D8E7EF
:1028400058469047DBF80030C5E7049A0A44D2B2F4
:102850000492089A149901320892D2B291423FF63A
:1028600059AFC246DB6A534538D11BB0BDE8F08F83
:10287000189A0B9919989C69139E5118129A024440
:102880006C4829448442324408BF1C690A9B09B23F
:1028900012B25846A047DBF8003055E70A9B019377
:1028A000059B009321460C9A5846B047DBF8003050
:1028B0004AE758469047DBF8003077E70023169345
:1028C0001093DBF80030DFF874A15A6952453FF4E9
:1028D00012AF58469047DBF800300CE758461BB063
:1028E000BDE8F04F1847BBF90A300B998B42BCDDAD
:1028F000BBF90C3015988342B7DD069C062313FB09
:102900000413002BB1DD00EBC403002BADDD9BF8FD
:1029100019302BB9039BAF2B02D90133DBB20393E0
:10292000DBF80000DFF814A14369534503D0584693
:102930009847DBF80000BDF82C300B930523069A6E
:102940000C93002309931FFA82F9BDF85430CDF897
:1029500014809046099A0D93CDF838A00B9DBDF8D0
:102960000C400D9E0523194611FB0423144602FB5F
:102970000951314AD75C15FA84F306F1080209B20D
:1029800092B21BB2079104920893344635461FE079
:10299000B8F1010F36D0D0F81CA022490FFA88F305
:1029A0008A450A9901912AB2009325D1D0F840A016
:1029B00007995846D047DBF80000049B0134A4B2C5
:1029C0004D444E44A342ADB2B6B24FEA570737D09A
:1029D000F907DDD40A9B059A9342EED0B8F1010FB6
:1029E0005AD0D0F81CA00F490FFA88F38A450599F0
:1029F000019132B20093D9D058460799D047DBF8FD
:102A00000000DAE7D0F818A00A4B08999A4508BFE9
:102A1000D0F810A00A9B584622B2D047DBF800003D
:102A2000CBE700BFC9140000D9150000E91700006A
:102A30002D150000BD1400000CAE0000E1140000D4
:102A4000099A0C9B0132013B52B213F0FF03099229
:102A50000C9383D1DDF814800A9BDDF838A0434540
:102A600054D0069B012B26D00B9BC4692E4D4FEAF8
:102A7000C9028DE8040109EB89010B441946AC42F7
:102A8000BDF9183008BF046C159A09B25846A04722
:102A9000DBF80030DB6AE6E6D0F818A0234B089993
:102AA0009A4508BFD0F810A0059B584622B2D047DF
:102AB000DBF8000081E7046A1D4B0B9D9C4205F189
:102AC00005052DB224D1846B1A4B9C4220D1436959
:102AD000534503D058469847DBF800000D9ACDF8CF
:102AE0000480073212B20092846A159A2B46294656
:102AF0005846A047DBF80030DB6A53453FF4B3AEDD
:102B000058469847DBF80030DB6AACE6C36AAAE6B1
:102B10000823CDF80080159A29465846A047DBF8CF
:102B20000030DB6A9FE600BFC9140000BD1400003E
:102B3000E91700002D150000F0B5C36985B0044603
:102B40002BB30A2968D00D294AD01A7A914247D36B
:102B5000587A884244D35D688A1A05EBC205AA7880
:102B6000002A50D0E87800284DD0207E00283AD0A6
:102B700095F905E0B4F90E00A67DB4F90A70724427
:102B800006FB0202BA4262DCB4F9102030E00A29E6
:102B900056D00D2924D0027E002A4BD0B0F90E0069
:102BA000A57DB4F90A60062212FB0502B2423EDDA1
:102BB000228AE38102EBC50212B218462282A78A5A
:102BC000668A02950B468DE8C00001462046FFF755
:102BD0005BFDA37DE28903EB430302EB4303E38147
:102BE000012005B0F0BDA67DB4F90E00B4F91020A7
:102BF000B4F814E0678A02960B468DE880400146DF
:102C00002046FFF741FD2979E389A27D012001FBE0
:102C10000233E38105B0F0BD0022C2819A7A817D42
:102C2000038A01FB02330382012005B0F0BDB4F931
:102C30001020C4E7857DB4F91020B0F90E00BEE77E
:102C4000028A817DC38102EBC1030382C8E70020B1
:102C5000E0819B7A228A03FB062212B22282C7E716
:102C6000C1810282704700BF002908BF0121817520
:102C7000704700BF41828282704700BF0176704773
:102C800010B582B0B0F90C200191016800920022C9
:102C90000C6CB0F90A301146A04702B010BD00BF5D
:102CA00010B400294CD120210C4690F821306BB192
:102CB00090F82A30244A41EA03415163D36A03F46D
:102CC0007043B3F5405FF9D810BC7047C26B137006
:102CD000826B1370026B1370416B01220A70416B9F
:102CE0000B70016B0B70416B0A70416B0B70016BC9
:102CF0000A70416B0A70416B0B70016B0B70416B7A
:102D00000A70416B0B70016B0B70416B0A70416B69
:102D10000B70016B0B70416B0A70416B0B70016B98
:102D20000B70416B0A70416B0B70016B14400C709F
:102D3000416B0A70416B0B70836B1A7010BC70474B
:102D400021210C46B1E700BF00C0024090F82120CD
:102D500010B4002A63D090F82A30AE4C1B0443F024
:102D600036036363E36A03F47043B3F5405FF9D855
:102D700001F003010229C17590F8203000F0908025
:102D8000032900F0BD80012900F09D80022B00F096
:102D90008881002A40F0C680C16B01230B70816BD3
:102DA0000A70016B0B70416B0B70416B0A70016B09
:102DB0000B70416B0B70416B0A70016B0A70416BB9
:102DC0000B70416B0A70016B0A70416B0B70416BA9
:102DD0000A70016B0B70416B0B70416B0A70016BD9
:102DE0000A70416B0B70416B0A70016B0A70416B8A
:102DF0000B70416B0A70016B0A70416B0B70416B79
:102E00000A70826B137090F8203010BC012B4FF0C9
:102E100080020CBF8023A023428183817047C36B53
:102E20001A70836B1A70036B1A70446B0123237042
:102E3000446B2270046B2270446B2370446B2270CD
:102E4000046B2370446B2370446B2270046B2370FB
:102E5000446B2370446B2270046B2270446B2370AC
:102E6000446B2270046B2370446B2370446B22709C
:102E7000046B2370446B2370446B2270046B2270CC
:102E8000446B2370446B2270826B01F0030113705A
:102E9000022990F82120C17590F820307FF470AF9E
:102EA000022B5ED0002A00F0B78090F82930594AF2
:102EB0001B0443F008035363D36A03F47043B3F570
:102EC000405FF9D89FE7022B3AD0002A00F0B28089
:102ED00090F829304F4A1B0443F0A8035363D36A88
:102EE00003F47043B3F5405FF9D890F8203010BC7C
:102EF000012B14BFA022802280234281838170474E
:102F0000022B3DD0002A4CD090F82930414A1B04B6
:102F100043F068035363D36A03F47043B3F5405F2F
:102F2000F9D8E2E790F829303A4A1B0443F0C80385
:102F30005363D36A03F47043B3F5405FF9D862E793
:102F4000002A00F00B8190F82930324A1B0443F02C
:102F5000A0035363D36A03F47043B3F5405FF9D819
:102F6000C3E7002A00F0EC8090F82930294A1B04BE
:102F70005363D36A03F47043B3F5405FF9D842E773
:102F8000002A00F0BD8090F82930224A1B0443F04B
:102F900060035363D36A03F47043B3F5405FF9D819
:102FA000A3E7C16B01230B70816B0A70016B0A7080
:102FB000416B0B70416B0A70016B0B70416B0B70B6
:102FC000416B0A70016B0B70416B0B70416B0A70A7
:102FD000016B0A70416B0B70416B0A70016B0B70D7
:102FE000416B0B70416B0A70016B0A70416B0B7087
:102FF000416B0A70016B0A70416B0B70416B0A7078
:10300000016B0A70416B0B70416B0A70826B13701D
:103010006BE700BF00C00240C16B01230B70816BE6
:103020000A70016B0A70416B0B70416B0A70016B87
:103030000A70BEE6C36B1970836B1A70036B19704C
:10304000436B1970436B1A70036B1A70436B1970E2
:10305000436B1A70036B1970436B1970436B1A70D2
:10306000036B1A70436B1970436B1A70036B197002
:10307000436B1970436B1A70036B1A70436B1970B2
:10308000436B1A70036B1A70436B1970436B1A70A1
:10309000036B1A70436B1970436B1A70836B197052
:1030A00023E76AB190F829303C4A1B0443F0C0037F
:1030B0005363D36A03F47043B3F5405FF9D8A2E6D3
:1030C000C16B01230B70816B0A70016B0B70416B3C
:1030D0000B70416B0A70016B0B70416B0B70416B95
:1030E0000A70016B0A70416B0B70416B0A70016BC7
:1030F0000A70416B0B70416B0A70016B0A706AE6D3
:10310000C16B01230B70816B0A70016B0A70416BFC
:103110000B70416B0A70016B0B70416B0B70416B54
:103120000A70016B0B70416B0B70416B0A70016B85
:103130000A70416B0B70416B0A70016B0A704FE7AC
:10314000C16B01230B70816B0A70016B0A70416BBC
:103150000B70416B0A70016B0A70BEE7C36B19708C
:10316000836B1A70036B1970436B1970436B1A7081
:10317000036B1A70436B1970436B1A70036B1970F1
:10318000436B1970436B1A70036B1A70436B1970A1
:10319000436B1A70036B1A706AE700BF00C00240ED
:1031A0002DE9F8430446894690461F469DF8206065
:1031B0009DF82450A0228021FEF7BCFC084984F829
:1031C0002290002284F8238084F8257084F82660F9
:1031D00084F82450216084F821202046BDE8F8833B
:1031E00024B300002DE9F84391F800906D4D4FF0A5
:1031F0000008C845044601F101063DD094F821308D
:103200003278002B00F0888094F82A3042EA03429A
:103210006A63EB6A03F47043B3F5405FF9D87378DF
:10322000B01C23F07F0E03F07F065FFA8EFE06448B
:103230000121B04211D094F8213010F8012BEBB1EC
:1032400094F8293042EA03426A63EB6A03F470435C
:10325000B3F5405FF9D8B042EDD1BEF1000F07D011
:103260003078FF2808BF4FF4FA70013602F036F8C4
:1032700008F10108C845C1D1BDE8F883E76B397092
:10328000A76B3B70276B4FEAD21C87F800C0676BB7
:103290003970676B3B70276BC2F3801C87F800C0E6
:1032A000676B3970676B3B70276BC2F3401C87F804
:1032B00000C0676B3970676B3B70276BC2F3001CF3
:1032C00087F800C0676B3970676B3B70276BC2F380
:1032D000C00C87F800C0676B3970676B3B70276B59
:1032E000C2F3800C87F800C0676B3970676B3B7066
:1032F000276BC2F3400C87F800C0676B3970676BAF
:103300003B70276B02F001023A70626B1170626BC6
:103310001370A36B19708CE7E16B0B70A16B0B70D2
:10332000216BD0090870606B01210170606B037024
:10333000206BC2F380170770606B0170606B0370C5
:10334000206BC2F340170770606B0170606B0370F5
:10335000206BC2F300170770606B0170606B037025
:10336000206BC2F3C0070770606B0170606B037065
:10337000206BC2F380070770606B0170606B037095
:10338000206BC2F340070770606B0170606B0370C5
:10339000206B0A400270626B1170626B1370A36B3A
:1033A00019703CE700C00240F8B590F8256090F82D
:1033B0002620FF2E04BF0B2680F82560FF2A4FF041
:1033C000000304BF0D2280F82620044680F8283030
:1033D00080F8273090F8220017280D464AD994F833
:1033E0002310924B53F83000A06353F83110E1637F
:1033F00053F83220626353F83630236301260023EA
:1034000084F821300670E26B1370626B1370226BCC
:10341000137094F82200314601F024FF314694F8ED
:10342000230001F01FFF314694F8260001F01AFF37
:10343000314694F8250001F015FF94F82400002887
:1034400040F0AF807A492046FFF7CCFE002D00F017
:103450009780012D00F0E08076492046FFF7C2FEFC
:1034600075492046FFF7BEFE022D00F0B68084F8B5
:103470002050F8BD714B23FA00F1C907AFD594F87D
:1034800023101729ADD8CB40DB07AAD5072E01D0D2
:103490000B2EA6D1A2F10D03012BA2D8638C40F60E
:1034A0000227BB429DD040F20A27BB4299D040F68A
:1034B0000617BB4295D040F20967BB4291D041F25A
:1034C0001477BB428DD041F21747BB4289D041F2FD
:1034D0001567BB4285D041F21657BB4281D001230C
:1034E0000D2A84F8213000F001825549554B564A87
:1034F0004FF4007008601F681678FF0446F004035C
:1035000006D59E4204D0514E4FF4A2773760086032
:1035100094F8251013700B2900F0D3814C49494EC3
:103520004FF4007008603768FF0443F0010606D5C9
:10353000B34204D0474B4FF4A2771F600860167067
:1035400094F8221000228B1EE262152B00F2B1814A
:10355000DFE813F0AB01AF01AF01AF019F01AF0195
:10356000AF0193018701AF01AF01AF01AF017B0153
:10357000AF01AF01AF01AF0170016E016201FA004E
:1035800035492046FFF72EFE0222012384F827202A
:1035900084F8283028492046FFF724FE84F820507C
:1035A000F8BD012101F05EFE012194F8240001F034
:1035B00035FE052001F092FE002194F8240001F070
:1035C0002DFE642001F08AFE94F82400012101F010
:1035D00025FE052001F082FE34E794F82120002A20
:1035E00040D094F82A301D4A1B0443F0360353633D
:1035F000D36A03F47043B3F5405FF9D894F82930E7
:10360000164A1B0443F0C0035363D36A03F47043A8
:10361000B3F5405FF9D82AE78023A38110492046FB
:10362000FFF7E0FD02220323B0E700BF30B4000043
:1036300094B3000074B30000D0B300004486F000DF
:1036400004C004403C800440A498FF1F14B0044010
:1036500008C0044018B0044084B3000000C0024019
:103660000CB30000E36B1A70A36B1A70236B1A7013
:10367000616B01230B70616B0A70216B0A70616BC7
:103680000B70616B0A70216B0B70616B0B70616B5F
:103690000A70216B0B70616B0B70616B0A70216B90
:1036A0000A70616B0B70616B0A70216B0B70616B40
:1036B0000B70616B0A70216B0B70616B0B70616B2F
:1036C0000A70216B0A70616B0B70616B0A70A26BE0
:1036D000137094F82120002A90D1E16B0B70A16B3C
:1036E0000A70216B0B70616B0B70616B0A70216B40
:1036F0000B70616B0B70616B0A70216B0A70616BF0
:103700000B70616B0A70216B0A70616B0B70616BDF
:103710000A70216B0A70616B0B70616B0A70216B10
:103720000A70616B0B70616B0A70216B0A70616BC0
:103730000B70616B0A70216B0A70616B0B70616BAF
:103740000A70A26B137092E6734B4FF4007204265A
:103750001A604FF0050E324606270C20142194F80B
:10376000233084F82920023B152B00F2A080DFE8EB
:1037700003F04D9E9E9E479E9E413B9E9E9E9E3583
:103780009E9E9E9E2F2A250B634B4FF4007230465F
:103790001A60624984F82A000A68614B614842F461
:1037A000805244F201060A601E60E26A42F06051F3
:1037B00042F0F042D9601A6118603EE65A4B4FF46D
:1037C00000721A60E5E7594B4FF400721A60E0E7A7
:1037D000574B4FF4007230461A60DAE7554B4FF4FE
:1037E000007208461A60D4E7534B4FF400727046DB
:1037F0001A60CEE7514B4FF4007238461A60C8E7A2
:103800004F4B4FF4007238461A60C2E74D4B4FF4ED
:10381000007270461A60BCE7434B4FF400720820F8
:103820001A604FF0090E02460A270C26182196E767
:103830003E4BF2E73E4B4FF4007204261A604FF005
:10384000050E324606270C2089E73A4B4FF40072EA
:1038500010211A604FF0110E0A4612271426182064
:103860007DE7354B4FF400724FF0010E1A600327CD
:10387000724605260920112171E7304B4FF4007282
:1038800002271A604FF0030E3A4606260A2012213C
:1038900065E72B4B4FF4007202270E461A604FF07B
:1038A000030E3A460A20122159E7264BDAE7104662
:1038B0006FE74FF0010E0227042608201021002296
:1038C0004DE7214915484FF400760E600668F6046E
:1038D00003F0FE0008D5984206D01C4E4FF4A277A4
:1038E0004FF4107337600B60107029E618490B4BCA
:1038F000184A4FF4107008601F681678FF0406F02D
:10390000FB037FF505AE9E423FF402AE124E4FF42C
:10391000A27737600860FBE508B004403C800440B3
:1039200000C00240000C1F8004B0044018C00440D6
:1039300014C0044000B0044010B004400CB0044077
:1039400010C0044000C0044018B0044008C0044047
:1039500014B00440A498FF1F04C00440F0B590F8D0
:1039600021509DF81460002D6ED090F82A40354DFE
:10397000240444F02A046C63EC6A04F47044B4F543
:10398000405FF9D890F82740214490F829502D4CF9
:1039900041EA054141F080516163E16A01F47041FF
:1039A000B1F5405FF9D890F827501D4490F82930C0
:1039B000244945EA034343F080534B63CB6A03F445
:1039C0007043B3F5405FF9D890F82A301D491B04C5
:1039D00043F02B034B63CB6A03F47043B3F5405FB2
:1039E000F9D890F82810114490F82930154A41EA86
:1039F000034141F080515163D36A03F47043B3F53E
:103A0000405FF9D890F82810314490F829600D4AA9
:103A100041EA064646F080565663D36A03F4704383
:103A2000B3F5405FF9D890F82A30064A1B0443F0FA
:103A30002C035363D36A03F47043B3F5405FF9D8A2
:103A4000F0BD00BF00C00240C46B2570846B2570C0
:103A5000046B2570476B01243C70476B3D70076B0E
:103A60003D70476B3C70476B3D70076B3C70476B1C
:103A70003C70476B3D70076B3D70476B3C70476B0C
:103A80003D70076B3C70476B3C70476B3D70076B3C
:103A90003D70476B3C70476B3D70076B3C70476BEC
:103AA0003C70476B3D70076B3D70476B3C70476BDC
:103AB0003D70856B2C7090F827E090F821508E4473
:103AC0001FFA8EF1002D7FF460AFC76B3C70876BDF
:103AD0003D70076B3D70476B3C70476B3D70076BEB
:103AE0003D70476B3C70476B3D70076B3D70476B9B
:103AF0003C70476B3D70076B3D70476B3C70476B8C
:103B00003D70076B3D70476B3C70476B3D70076BBA
:103B10003D70476B3C70476B3D70076B3D70476B6A
:103B20003C70476B3D70076B090A3970416B0C7034
:103B3000416B0D705FFA8EFE016B4FEADE170F705E
:103B4000416B0C70416B0D70016BCEF380170F70E1
:103B5000416B0C70416B0D70016BCEF340170F7011
:103B6000416B0C70416B0D70016BCEF300170F7041
:103B7000416B0C70416B0D70016BCEF3C0070F7081
:103B8000416B0C70416B0D70016BCEF380070F70B1
:103B9000416B0C70416B0D70016BCEF340070F70E1
:103BA000416B0C70416B0D70076B0EF0010E87F8C6
:103BB00000E0416B0C70416B0D70816B0C7090F8E4
:103BC000275090F821102B449DB200297FF4EEAECF
:103BD000C76B3C70876B3970076B3970476B3C70F3
:103BE000476B3970076B3970476B3C70476B3970A6
:103BF000076B3970476B3C70476B3970076B3970D6
:103C0000476B3C70476B3970076B3970476B3C7082
:103C1000476B3970076B3970476B3C70476B397075
:103C2000076B3970476B3C70476B3970076B2D0A17
:103C30003D70456B2C70456B2970DBB2056BDF095D
:103C40002F70456B2C70456B2970056BC3F3801783
:103C50002F70456B2C70456B2970056BC3F34017B3
:103C60002F70456B2C70456B2970056BC3F30017E3
:103C70002F70456B2C70456B2970056BC3F3C00723
:103C80002F70456B2C70456B2970056BC3F3800753
:103C90002F70456B2C70456B2970056BC3F3400783
:103CA0002F70456B2C70456B2970056B03F0010379
:103CB0002B70436B1C70436B1970836B1C7090F8F6
:103CC0002130002B7FF480AEC16B0B70816B0B70C9
:103CD000016B0B70416B0C70416B0B70016B0B70C7
:103CE000416B0C70416B0B70016B0C70416B0C7075
:103CF000416B0B70016B0B70416B0C70416B0B7067
:103D0000016B0C70416B0C70416B0B70016B0B7095
:103D1000416B0C70416B0B70016B0C70416B0C7044
:103D2000416B0B70016B0C70416B0C70416B0B7035
:103D3000836B1C7090F8281090F821300A4491B2DF
:103D4000002B7FF451AEC56B2C70856B2B70056B0F
:103D50002B70456B2C70456B2B70056B2B70456B76
:103D60002C70456B2B70056B2B70456B2C70456B65
:103D70002B70056B2B70456B2C70456B2B70056B96
:103D80002B70456B2C70456B2B70056B2B70456B46
:103D90002C70456B2B70056B2B70456B2C70456B35
:103DA0002B70056B090A2970416B0C70416B0B700D
:103DB000D2B2016BD5090D70416B0C70416B0B7069
:103DC000016BC2F380150D70416B0C70416B0B7071
:103DD000016BC2F340150D70416B0C70416B0B70A1
:103DE000016BC2F300150D70416B0C70416B0B70D1
:103DF000016BC2F3C0050D70416B0C70416B0B7011
:103E0000016BC2F380050D70416B0C70416B0B7040
:103E1000016BC2F340050D70416B0C70416B0B7070
:103E2000016B02F001020A70426B1470426B137056
:103E3000836B1C7090F8282090F821301644B1B2A2
:103E4000002B7FF4E2ADC26B1470826B1370026BB7
:103E50001370426B1470426B1370026B1370426BE1
:103E60001470426B1370026B1370426B1470426BD0
:103E70001370026B1370426B1470426B1370026B01
:103E80001370426B1470426B1370026B1370426BB1
:103E90001470426B1370026B1370426B1470426BA0
:103EA0001370026B090A1170426B1470426B13702D
:103EB000F6B2026BF1091170426B1470426B137011
:103EC000026BC6F380111170426B1470426B137059
:103ED000026BC6F340111170426B1470426B137089
:103EE000026BC6F300111170426B1470426B1370B9
:103EF000026BC6F3C0011170426B1470426B1370F9
:103F0000026BC6F380011170426B1470426B137028
:103F1000026BC6F340011170426B1470426B137058
:103F2000026B06F001061670426B1470426B137040
:103F3000836B1C7090F82130002B7FF474ADC26B42
:103F40001370826B1370026B1370426B1470426BB0
:103F50001370026B1370426B1470426B1370026B20
:103F60001470426B1470426B1370026B1370426BCF
:103F70001470426B1370026B1470426B1470426BBE
:103F80001370026B1470426B1470426B1370026BEF
:103F90001370426B1470426B1370026B1370426BA0
:103FA0001470426B1370836B1C70F0BD2DE9F043ED
:103FB0000446B0F90A0083B08842BDF8288034DD99
:103FC0001D46B4F90C3093422FDD4B198342C8BF14
:103FD000401AC9B2C8BF05B24B1ED2B22B4420460C
:103FE0000092DBB2FFF7BAFC4FEA18265FFA88F0BE
:103FF0005949C6F3801EC0F3801C013D2DB26B1CD5
:1040000013D094F821309BB194F8293048EA034347
:1040100043F080534B63CB6A03F47043B3F5405FC6
:10402000F9D8013D2DB26B1CEBD103B0BDE8F08394
:10403000E76B01223A70A76B3B70276B4FEAD619EA
:1040400087F80090676B3A70676B3B70276B87F857
:1040500000E0676B3A70676B3B70276BC6F34019E3
:1040600087F80090676B3A70676B3B70276BC6F3FD
:10407000001987F80090676B3A70676B3B70276B8D
:10408000C6F3C00987F80090676B3A70676B3B70A6
:10409000276BC6F3800987F80090676B3A70676BEF
:1040A0003B70276BC6F3400987F80090676B3A7046
:1040B000676B3B70276B06EA020987F80090676B15
:1040C0003A70676B3B70276B4FEAD01987F8009006
:1040D000676B3A70676B3B70276B87F800C0676B44
:1040E0003A70676B3B70276BC0F3401987F80090FC
:1040F000676B3A70676B3B70276BC0F3001987F8EA
:104100000090676B3A70676B3B70276BC0F3C00918
:1041100087F80090676B3A70676B3B70276BC0F352
:10412000800987F80090676B3A70676B3B70276B6C
:10413000C0F3400987F80090676B3A70676B3B707B
:10414000276B00EA020987F80090676B3A70676B8B
:104150003B70A36B1A7050E700C002402DE9F04F8E
:104160000446B0F90A0083B08842BDF930A0BDF81A
:1041700034804DDD9946B4F90C30934248DD01EBB3
:1041800009058542C4BF401A0FFA80F902EB0A0004
:104190009842C8BFC2EB030AD2B2C8BF0FFA8AFA6C
:1041A000C9B2501E4B1E5044C0B24B440090DBB20B
:1041B0002046FFF7D3FBBAF1000F29DD4FEA18259F
:1041C0005FFA88F0C5F3801EC0F3801CB9F1000FC0
:1041D00016DD5E494E4694F82130E3B194F829305B
:1041E00048EA034343F080534B63CB6A03F47043C4
:1041F000B3F5405FF9D8013EB3B21EB2002BEAD14D
:104200000AF1FF3A1FFA8AF30FFA83FA002BDDD185
:1042100003B0BDE8F08FE76B01223A70A76B3B70EB
:10422000276B4FEAD51B87F800B0676B3A70676B56
:104230003B70276B87F800E0676B3A70676B3B70E9
:10424000276BC5F3401B87F800B0676B3A70676B4C
:104250003B70276BC5F3001B87F800B0676B3A70A3
:10426000676B3B70276BC5F3C00B87F800B0676BBB
:104270003A70676B3B70276BC5F3800B87F800B013
:10428000676B3A70676B3B70276BC5F3400B87F821
:1042900000B0676B3A70676B3B70276B05EA020BE7
:1042A00087F800B0676B3A70676B3B70276B4FEA1B
:1042B000D01B87F800B0676B3A70676B3B70276B59
:1042C00087F800C0676B3A70676B3B70276BC0F371
:1042D000401B87F800B0676B3A70676B3B70276BC9
:1042E000C0F3001B87F800B0676B3A70676B3B70D8
:1042F000276BC0F3C00B87F800B0676B3A70676B31
:104300003B70276BC0F3800B87F800B0676B3A7087
:10431000676B3B70276BC0F3400B87F800B0676B8F
:104320003A70676B3B70276B00EA020B87F800B0AE
:10433000676B3A70676B3B70A36B013E1A70B3B248
:104340001EB2002B7FF447AF5AE700BF00C0024007
:104350002DE9F0430446B0F90A0083B08842BDF865
:10436000288035DD1D46B4F90C309A4230DA5019F8
:104370009842C8BF9B1AD2B2C8BF1DB2501E284473
:10438000CBB2C1B2009120461946FFF7E7FA4FEAD7
:1043900018265FFA88F05A49C6F3801EC0F3801CC5
:1043A000013D2DB26B1C13D094F821309BB194F8D1
:1043B000293048EA034343F080534B63CB6A03F44C
:1043C0007043B3F5405FF9D8013D2DB26B1CEBD1C2
:1043D00003B0BDE8F083E76B01223A70A76B3B7036
:1043E000276B4FEAD61987F80090676B3A70676BB6
:1043F0003B70276B87F800E0676B3A70676B3B7028
:10440000276BC6F3401987F80090676B3A70676BAB
:104410003B70276BC6F3001987F80090676B3A7002
:10442000676B3B70276BC6F3C00987F80090676B1A
:104430003A70676B3B70276BC6F3800987F8009072
:10444000676B3A70676B3B70276BC6F3400987F860
:104450000090676B3A70676B3B70276B06EA020946
:1044600087F80090676B3A70676B3B70276B4FEA79
:10447000D01987F80090676B3A70676B3B70276BB9
:1044800087F800C0676B3A70676B3B70276BC0F3AF
:10449000401987F80090676B3A70676B3B70276B29
:1044A000C0F3001987F80090676B3A70676B3B7038
:1044B000276BC0F3C00987F80090676B3A70676B91
:1044C0003B70276BC0F3800987F80090676B3A70E8
:1044D000676B3B70276BC0F3400987F80090676BF0
:1044E0003A70676B3B70276B00EA020987F800900F
:1044F000676B3A70676B3B70A36B1A7050E700BF35
:1045000000C0024000292ADB70B5B0F90A608E4273
:1045100082B0044605DD002A03DBB0F90C50954259
:1045200001DC02B070BDD2B2561CC9B21D46F6B253
:104530004B1C0096DBB2FFF711FA90F821207AB1FC
:1045400090F82930494A45EA034545F080555563BE
:10455000D36A03F47043B3F5405FF9D8E1E77047DD
:10456000C36B01211970836B1A70006B2B0ADE0973
:104570000670606B0170606B0270206BC3F3801675
:104580000670606B0170606B0270206BC3F34016A5
:104590000670606B0170606B0270206BC3F30016D5
:1045A0000670606B0170606B0270206BC3F3C00615
:1045B0000670606B0170606B0270206BC3F3800645
:1045C0000670606B0170606B0270206BC3F3400675
:1045D0000670606B0170606B0270206B0B400370A3
:1045E000636B1970636B1A70EDB2236BE809187076
:1045F000636B1970636B1A70236BC5F380101870AE
:10460000636B1970636B1A70236BC5F340101870DD
:10461000636B1970636B1A70236BC5F3001018700D
:10462000636B1970636B1A70236BC5F3C00018704D
:10463000636B1970636B1A70236BC5F3800018707D
:10464000636B1970636B1A70236BC5F340001870AD
:10465000636B1970636B1A70236B0D401D70636B75
:104660001970636B1A70A36B19705AE700C002408F
:1046700010B4047F4160022CC26002D010BC01F073
:10468000F5BE836810BC18472DE9F041CFB205464E
:104690000E463846002190461C4600F0E3FD3846A1
:1046A000002100F0BBFD85F80C802E6020464FF005
:1046B0007E5103F0D3FC20B14FF07E54AC60BDE8D6
:1046C000F0810021204603F0ABFC0028F6D0002446
:1046D000AC60BDE8F08100BF2DE9F84F04460078DA
:1046E00000F000FA237BE56A2563A062002B40D02E
:1046F000237D002B40F09E8003F0A0FAD4F81090A8
:104700000746D4F818803846414603F0E1F9002105
:10471000064603F0A3FC002800F0CD80304603F0ED
:10472000E3FC276A82463946304603F0D1F96349F3
:1047300003F0D8FA394603F0CDF90021206207468C
:1047400003F08CFC002800F0B380394648464FF057
:10475000010B03F083FC08B94FF0000B84F824B080
:104760003946484603F07AFC08B3404603F096FC0D
:1047700058E0D4F8188003F061FA414603F0A8F934
:104780000021064603F06AFC002879D106F10040BA
:1047900003F0AAFC276A82463946304603F098F9AE
:1047A000464903F09FFA394603F094F920625046D7
:1047B00003F040FAA16803F095FA4FF07E5103F040
:1047C00089F901464FF07E5003F040FB01464FF05F
:1047D0007E5003F07DF9014603F07CF94FF07E51E5
:1047E000074603F03BFC002851D04FF07E50314685
:1047F00003F078FA414603F06DF900273946A061CD
:10480000064603F00DFC002843D16068013803F030
:1048100015FA07460146304603F020FC90BB3046AF
:1048200003F03CFC2D1A18BF012584F83450E062D7
:10483000BDE8F88F064603F001FAD4F81090494617
:10484000074603F0EDFB38BBD4F80480404603F084
:10485000F5F9494603F03CF90146384603F0FEFB02
:1048600000283FF44EAFC8EB460003F0E7F9494695
:1048700003F030F903F012FC03F0E0F9074640E7DB
:10488000304685E7A761384603F008FCCAE738469A
:10489000ADE7A7610020C5E7700003F0CFF94946F6
:1048A00003F016F903F0FAFB03F0C8F9074628E70E
:1048B00007F1004749E706F1004030E7CDCCCC3E98
:1048C000374A384913681B06FCD40B6813F0800381
:1048D000F8D172B634490A78002A5FD0334A344896
:1048E000F0B4344C176806682568D4680C303E4430
:1048F000143200681268304F35442C44204402447E
:10490000C2F34E022D4E2E482E4D2F4C42F4004243
:104910003A60376806682D682C4A24680C303E449B
:10492000006812682A4F35442C4420440244C2F3E4
:104930004E02284E2848294D294C42F400423A6044
:10494000376806682D68274A24680C303E440068A2
:104950001268254F35442C4420440244C2F34E02D1
:10496000224E2348234D244C42F400423A603768DB
:1049700006682D68214A24680C303E44006812689D
:1049800035442C4420440244C2F34E021C4842F4F5
:10499000004202600B7062B6F0BC704762B67047AE
:1049A00024B0034024B00B406997FF1F38B0034088
:1049B0003CB0034040B003402CB0034058B003402B
:1049C0005CB0034060B0034064B003406CB003408F
:1049D00030B0034038B00B403CB00B4040B00B400F
:1049E00044B00B404CB00B402CB00B4058B00B40C7
:1049F0005CB00B4060B00B4064B00B406CB00B403F
:104A000030B00B4030B42948294A2A4B2A4D602443
:104A1000E121047011701B78284C082B30D00A2B30
:104A20002748284937D00C2B0CBF35223D221223B2
:104A30002A60236002600B60234B24491B78244AC0
:104A4000BBB101230B601360224B23491B78234A1F
:104A5000012B26D9042B0FD9082B1ED9102B94BF5C
:104A6000862387230B6013601D4B01221A7030BC14
:104A700070470B601360E7E784230B601360F3E774
:104A800000F58E200F490830012213232A6023608D
:104A900002600B60D0E73922F7E785230B601360D3
:104AA000E2E780230B601360DEE700BF00400740B1
:104AB00001400740748CFF1F08B003400CB0034056
:104AC00008B00B400CB00B406C97FF1F20B00340A8
:104AD00020B00B40758CFF1F24B0034024B00B4066
:104AE0006997FF1F28282FD8334B2DE9F0411E5C12
:104AF000FF2E2BD0314B1B78002B2AD132062CD421
:104B000072B62F4D2F4C2F46012326602B7062B6B4
:104B100072B623681B060CD43B781BB9F4E72B78DC
:104B2000002BF1D062B602F027F872B6236818069F
:104B3000F5D5254B1B6800222A7062B6234A1078EF
:104B400043FA00F0BDE8F081002070470020BDE886
:104B5000F081FFF7B5FE3206D2D572B61C4DDFF8F4
:104B60007C801C4C06F04007FFB206F03F06D8F8E8
:104B70000030DFB123F01003C8F8003001232660B5
:104B8000134A2B7062B672B6236819060CD41378D8
:104B90001BB9ECE72B78002BE9D062B601F0ECFFF3
:104BA00072B623681B06F5D50B4BC3E743F0100321
:104BB000C8F80030E2E700BFFCB300006997FF1FB0
:104BC0006B97FF1F00B0034010B003406897FF1FB2
:104BD0006A97FF1F00B00B4010B00B400CB00B40A9
:104BE00008B5104C08E0236859050DD423681A0550
:104BF0000FD42368DB0411D423685803F3D500F0E5
:104C0000A5FC23685905F1D502F0AEF823681A0512
:104C1000EFD502F03FF92368DB04EDD502F0D0F9BF
:104C2000EAE700BF3480044008B5FFF7D9FF00BFB2
:104C3000014B10221A80704700200540704700BFCA
:104C4000094908B50B6830B16A461844A2F580528C
:104C5000904202D20860184608BD03F0A5FA0C2362
:104C600003604FF0FF3008BD788CFF1FFEE700BFE8
:104C7000F0B44D1E2E46002400E00134B0FBF2F3E8
:104C800002FB1300092800F130078ABF3730F8B261
:104C9000C0B206F8010F1846002BEED10A19537066
:104CA0004CB1107815F8016F28700133E01A834277
:104CB00002F80169F5DB0846F0BC70472DE9F04FBA
:104CC0000E4687B086EAE67A0146054691461C46BE
:104CD000AAEBE67A03F0CCF9002840F0348125F005
:104CE00000484046C64903F0C3F9002842D1404677
:104CF000C34903F09FF9074600283BD1002128460D
:104D000003F08EF9002814BF0423032353451ADB54
:104D1000002E23DB2846002103F082F930BB492115
:104D20004E22462321706270A37003342FB12046B7
:104D30003A46202103F092FD3C4400232046237094
:104D400007B0BDE8F08F002EC3EB0A07E2DA2FB1FF
:104D500020463A4620213C4403F080FD28460021AD
:104D600003F05EF9002800F0208100272D23237036
:104D70000134D4E704AB03AA4946284603F004FAF9
:104D8000CB468046DDF80CA0B9F1000F5ED0CAF129
:104D900000034B4500F39A80404604F031F8074683
:104DA0005745C8BF0137BAF1000F40F09E80013768
:104DB000DDF810B0BBF1000F58D00137F31B002B0A
:104DC00004EB070558DC23462D221A700133BAF193
:104DD000000F64D1B9F1000F06D01A46302102F855
:104DE000021B2E2159701346AB4225D2591C98F84C
:104DF00000201A70A94208F101001ED0039A4FF05A
:104E00002E0C013A0EE083F801C00233AB4203F1ED
:104E1000010102F1FF320FD210F801EB83F800E03C
:104E2000A9420AD00392002AEDD00B46AB4203F10F
:104E3000010102F1FF32EFD31D46002EC0F2A48023
:104E4000002320462B7007B0BDE8F08FBAF1000FA9
:104E50009DD100786B496C4A012303939A4634280C
:104E60008CBF884690464FF0FF3392E7F31B002B30
:104E700004EB070540F3C1801D44013B23EAE373C3
:104E800001331A4620212046019303F0E7FC019BE1
:104E90002344BBF1000F97D1BAF1000F9AD0A3DAE7
:104EA000B9F1000FA0D09946302109F8021BCAF1D0
:104EB000000A4FF02E0E524683F801E0484603F0F8
:104EC000CDFC002209EB0A0303928DE7C9F1000A29
:104ED000012757453846C8BF0137BAF1000FDFF840
:104EE0002881CDF80CA03FF462AFBFF661AFB9F1F5
:104EF000000F3FF45DAF0AEB0903984209F1020786
:104F00007FF656AFB9F1000F07DD28463F4902F0A2
:104F1000E9FEBBF1010B0546F7D104AB05AA5946E2
:104F2000284603F031F9DDF80CA0059A09F10103D8
:104F3000CAEB02029A4208BF0AF1010A804608BF82
:104F4000CDF80CA034E70021284603F069F80028CA
:104F500014BF0427032757452FDA002EC7EB0A0793
:104F60002FDB4FF07E532846002163F31E0003F031
:104F700057F8B8BB4E2341222370A37062700334EC
:104F8000002F7FF4D4AED8E63E447342002B6FEA84
:104F900006067FF755AF26EAE67601362846324602
:104FA000202103F05BFC35444AE749214E22462389
:104FB00021706270A3700334BFE6002E08DB002767
:104FC000CFE72FB120463A4620213C4403F046FC6F
:104FD0004FF07E532846002163F31E0003F020F8B3
:104FE00020B100272D2323700134C3E74E23412233
:104FF0002370A370627003349FE62346E7E600BF88
:10500000FFFF7F7F2CB4000028B400000000204187
:1050100030B4054B054D064C002210211A602A6061
:105020002060196030BC704714D0034004D00340A6
:1050300000D003402DE9F8436A4B6B496B4E6C4D31
:105040006C4CDFF8D0C1DFF8D0E16B4A6B4F4FF406
:10505000000018604FF0807018604FF0007018600A
:105060004FF0806018604FF000601860002008600A
:1050700028234BF6FF71CCF80010CEF800303360D7
:1050800013602B6023603B60B3629362092245F892
:10509000242CC4F8D80F05F57F65C7F8D41F07F591
:1050A000FF2707F5FA67C6F8F83F2B6006F5FF26DD
:1050B000C4F8D42F05F5FD2504F5FF24386006F269
:1050C000F4764F48316005F5FF6504F5FD642B600B
:1050D00023600260FFF796FC72B64A4D4A4B4B4A7A
:1050E0001B682C68126862B6510102D5322B88BF4A
:1050F0000134C3F5BB33464FDFF80C91DFF80C8168
:10510000FF334FF47A72A7FB031302FB04F404EBA2
:105110009314322672B6D9F800102A68D8F800E045
:1051200062B6C1F5BB33FF33A7FB03031EF0806FEC
:10513000C4EB93134FF47A7002D0322988BF013246
:1051400000FB0233B3F57A7F04D3013E05D004F5AA
:105150007A74DFE701F010FDDCE700F0C3FE72B601
:10516000294B2A4A1B682C68126862B6520102D584
:10517000322B88BF0134C3F5BB33254FDFF888904D
:10518000DFF88880FF334FF47A72A7FB031302FB2A
:1051900004F404EB93144FF4AF7672B6D9F8001010
:1051A0002A68D8F800E062B6C1F5BB33FF33A7FB2D
:1051B00003031EF0806FC4EB93134FF47A7002D098
:1051C000322988BF013200FB0233B3F57A7F04D362
:1051D000013E05D004F57A74DFE701F0CDFCDCE791
:1051E000BDE8F88308E100E0048003401480034038
:1051F000248003402C8003401C8003403480034003
:1052000000800B407097FF1F18E000E004ED00E005
:10521000ABAAAAAA088003400C80034021280BD81F
:1052200010B40F4B53F8302092F880422CB1012378
:1052300069B182F8803010BC704703EBC00043684E
:105240001A6841B922F002021A6010BCF4E782F831
:10525000003110BCF0E742F003021A6010BCEBE72B
:1052600030B40000212820D81B4A02EBC0030129DA
:105270005B680FD004291DD052F83000002280F85E
:10528000802299B1022922D003290DD14FF48172D5
:105290001A60704752F830004FF4A27280F8801202
:1052A0001A601A6822F020021A6070474FF4807268
:1052B0001A60704752F830104FF4A272012081F842
:1052C00080021A601A6842F020021A60704740F2A9
:1052D00003121A60704700BF30B400002DE9F84394
:1052E000054672B6204F214B214A1B683C68126864
:1052F00062B6520102D5322B88BF013495B3C3F593
:10530000BB331C4EDFF86490DFF86480FF334FF44A
:105310007A72A6FB031302FB04F404EB931472B637
:10532000D9F800103A68D8F800E062B6C1F5BB338E
:10533000FF33A6FB03031EF0806FC4EB93134FF4FF
:105340007A7002D0322988BF013200FB0233B3F5F4
:105350007A7F04D3013D05D004F57A74DFE701F0CC
:105360000BFCDCE7BDE8F8837097FF1F18E000E056
:1053700004ED00E0ABAAAAAA431E042B14D872B60F
:105380000A4951F8230068B170B4094C058834F813
:105390001320466841F82360521B24F8132062B69C
:1053A00070BC704762B6704700207047D097FF1FEF
:1053B000689AFF1F013804280BD872B6074B53F8C0
:1053C000203043B100205B680130002BFBD162B676
:1053D0007047002070471846F9E700BF2898FF1F64
:1053E00030B472B6334A13781B0706D5324B196AAC
:1053F000002943D0996A00294ED053781D0706D55D
:105400002D4B196C00294DD0996C002946D093780A
:105410001C0706D5284B196E002945D0996E002926
:105420003ED0D378190707D5234BD3F88010002935
:105430003ED0D3F8881091B113791B0708D51E4BC5
:10544000D3F8A020002A31D0D3F8A82015243AB1EF
:1054500062B61A4B00221A7030BC00F0BFBD112496
:105460001649174D0A7843F8345003EBC40308304B
:10547000013A58600A7062B630BC704704220F4C83
:10548000104D217843F8325003EBC20308304A1E16
:105490005860227062B6EFE70524E1E70924DFE7F0
:1054A0000D24DDE70822EAE70C22E8E71422E6E70C
:1054B0001022E4E768B500000080FF1F5998FF1F25
:1054C000C800400088004000431E042B1DD81B4A22
:1054D000400140F0100030B4104472B6184CE25C49
:1054E000032A1BD8DFE802F00212151703220D88E9
:1054F000E25410F0080F14BFC823882343EA054381
:1055000008310360416062B630BC70470830022247
:10551000EDE70522EBE708300422E8E7094A52F8F4
:10552000230038B1084A52F82300416042F82310A2
:1055300062B6E9E742F82310034AF7E70080FF1F4D
:105540006898FF1F2898FF1F3C98FF1F2DE9F04F18
:10555000DFF808B3DFF808A387B044E0AA4F4FEAAA
:10556000930807EBC809013ED9F8042003F00803AB
:10557000F6B2A2F1080003F0FF04002B40F0008116
:1055800057F838301B0C99B222F8081C002B00F099
:10559000EE809E4B22F8064C42F8044C53F826202D
:1055A000002A00F035829A4D55F826305860994C03
:1055B00045F8260034F81630194424F8161000F087
:1055C000EDFC002800F01D82934A944B19F0080F5F
:1055D00000F1080018BF1346C9F8040047F8383036
:1055E00008238BF800309BF80040E4B260071CD51C
:1055F0008B4B1B78B3B18B490A7802F0FF0322B1C1
:10560000013BDBB20B7003B900BE87490A7802F098
:10561000FF032AB1013BDBB20B70002B00F0C78106
:1056200000F052FD04238BF8003004F0080303F06F
:10563000FF02002B00F0C8809AF80030DBB21E0990
:105640008CD19C08DFF8C09159F8342009EBC401D3
:10565000C2F38302013A49680C2A00F28480DFE831
:1056600002F078788282828282824382828207007C
:1056700008686E4D684B4A686D4F49F8343081B206
:105680006C4E6A6040F2816400222860A1424FF0B3
:1056900001003A60C9F81020C9F81820307000F2F3
:1056A000E180B1F5D06F80F01383B1F5817F00F018
:1056B000E68100F2C981802900F02483822940F02C
:1056C000E481A98801F07F01052900F2DE815A4BAF
:1056D0005A4C89000B44227062701A78930740F18B
:1056E00098832070022014E2514F3A6832B3544B31
:1056F000504E5449188834780D784028864645F035
:10570000020828BF4FF0400E002C84F001043470D2
:10571000CEEB00000CBF8824C82409EBC80680B279
:1057200085F0010544EA0E447260188049F838405B
:1057300072440D70002800F0B6803A603B4B1A8826
:10574000B2F5A06F0FD100219A7859703E4B1A70B4
:1057500009E0364A108842F22102904200F0A88007
:105760002D4A49F83420394A0123137038E72A4A70
:105770002A4B19F0080F18BF134647F838302FE7A7
:1057800000F02CFC324A334952F82630002B00F04E
:10579000438158688C5D42F8260003F10802C9F87D
:1057A0000420032C05D8DFE804F02C02292602226D
:1057B0008A551A8819F0080F0CBF8823C82343EABA
:1057C000024347F838300BE7E00700F1F380210689
:1057D00000F13081A20706D51F4A20491378022024
:1057E000DBB213700870E30602D51C4B10221A704E
:1057F00007B0BDE8F08F04228A55DAE705228A5502
:10580000D7E703228A55D4E70080FF1FD097FF1FF8
:105810007897FF1F689AFF1FC8004000880040006B
:105820006498FF1FE597FF1F7598FF1F5098FF1F93
:105830007497FF1FE497FF1FC02007405C98FF1F6D
:105840008C97FF1F5898FF1F98200740942007400F
:105850002898FF1F6898FF1F882007408020074076
:105860009020074042F22104A14200F09C8049D8D8
:10587000B1F5086F00F04981B1F5106F40F0058176
:10588000B24AB34CA978117004F1A00503E00834C2
:10589000A54200F08981236A1906F8D5606A0838A4
:1058A00000F09CFBF3E7BEF1400F18BF002244E775
:1058B000A84A0D784878157050708D78C878957022
:1058C000D07010680D79157186284D7989795571D8
:1058D000917100F01681A049A04E0A78307882F0CC
:1058E0000105002842F002020D700CBF8821C8217A
:1058F00049F8321009EBC20280F00100002130703B
:1059000051602DE742F22124A14240F00882DFF8E5
:1059100090C2934B9349AC78DCF800501D60019025
:105920000C70002002908046844604468A490D7817
:1059300045F0020E09EBCE030393019B002B039B62
:105940005C600CBF8824C82448EA040385F0010485
:1059500049F83E3032700C70DFF8F4E17F4BDFF82D
:10596000F881002840F09880BCF1400F1BD144F032
:10597000020C09EBCC03029CDFF8D4E15C60002A46
:1059800040F0A080020442F088029DF804304EF8F6
:105990003C20044433700D702346402803D100207E
:1059A000714A3B601080714A01231370DBE600F0FE
:1059B00039FD35E6664B6D4867491A614FF0020EB6
:1059C00080F800E06A4F0A706A49196099606A4E6F
:1059D0006A4D6B4C9A610D213970FF213170DFF8EF
:1059E000C4E129702270674D674A8EF800109F2726
:1059F000012406F8047C5D600470DA6007B0BDE83D
:105A0000F08F624A47F83800137801331370E7E5E6
:105A100043F826005E4DCAE58B5D032B6AD801A2D0
:105A200052F823F0E1550000E1550000795A0000DA
:105A3000735A00004E49514B80220D2008701A7095
:105A4000A2077FF5D0AEC7E640F20232914240F0A5
:105A50005E81A98801F07F01052916D86A88A2B95C
:105A6000434C019089000C44217841F002012170DF
:105A700057E701238B55B3E500238B55B0E5A98883
:105A800001F07F01052940F24F81394A0F2313703D
:105A9000364A0123137066E640287FF668AF44F06B
:105AA00002040EEBC401029E4E60BAB19DF80410D0
:105AB000384A19703346403888F8005040334EF861
:105AC00034206DE79DF8043033700204029B0D70A2
:105AD00042F0C80203444EF83C205EE79DF80410F3
